:100000000A128A110C283F34FE00030EF0000A0881
:10001000F1000A168A11BA2C0A128A110F288313CA
:10002000E730FD001230FE004D30FF00C930840083
:100030000A168A11C5210A128A110A128A1503208A
:100040000A128A11ED000A128A1504200A128A1176
:10005000EE000A128A1103200A128A11FB00A03056
:100060008400C9300A168A116C210A128A115E3086
:1000700084006D300A168A116C210A128A11FA0165
:1000800083010A128A11582B83120313AA0010301D
:100090002206031D4C284D28F2280A30E8001215CC
:1000A00002300A168A1162230A128A110F3983124A
:1000B0000313A3000A30F90002300A168A116223E2
:1000C0000A128A1183120313A40004300310A40C33
:1000D000FF3E031D6628240803390A168A11FD21F4
:1000E0000A128A11831203132307E20001300A1651
:1000F0008A1162230A128A110F3983120313A30093
:100100000A30F90001300A168A1162230A128A1194
:1001100083120313A40004300310A40CFF3E031D3C
:100120008C28240807390A168A11FD210A128A111F
:10013000831203132307E10000300A168A11622399
:100140000A128A110F3983120313A3000A30F9002F
:1001500000300A168A1162230A128A1183120313CD
:10016000A40004300310A40CFF3E031DB228240891
:1001700007390A168A11FD210A128A118312031304
:100180002307E000DF0183160313A501A6010A1669
:100190008A1164210A128A119C30F6008730F70018
:1001A0008330F8000A168A11B8230A128A11C53062
:1001B00083120313A0003A300A168A11E8210A12AA
:1001C0008A11C83083120313A0003A300A168A112C
:1001D000E8210A128A11F2010C300A168A114E2403
:1001E0000A128A11831203136808031DF828F928DC
:1001F00000290A168A1164210A128A110930572B24
:1002000037302A06031D05290629532946291830A7
:10021000F2000030F3006208013EF40000300318E1
:100220000130F5000A168A1181260A128A11720815
:1002300083120313E20051293C30F2000030F30036
:100240006108013EF400003003180130F5000A1681
:100250008A1181260A128A11720883120313E1009F
:1002600051293C30F2000030F3006008013EF400F8
:10027000003003180130F5000A168A1181260A128F
:100280008A11720883120313E00051295F08003AB3
:1002900003190729013A03191C29033A03193129C3
:1002A00051290A30E8002F302A06031D5829592900
:1002B00064290130DF0703305F02031C60296129D4
:1002C0006229DF010A30E80000300A168A1138235B
:1002D0000A128A11373A031D6E296F29542A0130F8
:1002E00083160313A5070318A60A0030A6070030DB
:1002F0002602193003192502031C7F298029582A58
:100300000A30F2000030F300831203136208A300E6
:10031000A4012308F4002408F5000A168A11812696
:100320000A128A11720883120313A5007308A6002B
:100330000A30F2000030F3006208A700A801270885
:10034000F4002808F5000A168A113A270A128A11C1
:10035000720883120313A90003300310A90DFF3E96
:10036000031DAD290310290D2504A00002300A1633
:100370008A11EE220A128A110A30F2000030F300CC
:10038000831203136108A300A4012308F4002408C6
:10039000F5000A168A1181260A128A117208831240
:1003A0000313A5007308A6000A30F2000030F30022
:1003B0006108A700A8012708F4002808F5000A161C
:1003C0008A113A270A128A11720883120313A900AC
:1003D00003300310A90DFF3E031DE9290310290D69
:1003E0002504A00001300A168A11EE220A128A1191
:1003F0000A30F2000030F300831203136008A300F8
:10040000A4012308F4002408F5000A168A118126A5
:100410000A128A11720883120313A5007308A6003A
:100420000A30F2000030F3006008A700A801270896
:10043000F4002808F5000A168A113A270A128A11D0
:10044000720883120313A90003300310A90DFF3EA5
:10045000031D252A0310290D2504A00000300A16CB
:100460008A11EE220A128A110A168A1164210A12CE
:100470008A115330F6008730F7008230F8000A16F0
:100480008A11B8230A128A11273083120313A50098
:100490000D30A4002530A300A30B4C2AA40B4C2A3A
:1004A000A50B4C2A532AFE2883160313A501A60187
:1004B000831203136808AB000130AB055F08031D0E
:1004C000622A632A7B2A2B080319672A682A7B2A57
:1004D000C330A00020300A168A11E8210A128A11BE
:1004E000C43083120313A00020300A168A11E821B9
:1004F0000A128A11AF2AC330A0000A30F20000307D
:10050000F3006208A300A4012308F4002408F50006
:100510000A168A113A270A128A117208303E0A1600
:100520008A11E8210A128A11C43083120313A00031
:100530000A30F2000030F3006208A300A40123088F
:10054000F4002408F5000A168A1181260A128A117D
:100550007208303E0A168A11E8210A128A118312A3
:1005600003135F03031DB52AB62ACE2A2B080319ED
:10057000BA2ABB2ACE2AC630A00020300A168A1119
:10058000E8210A128A11C73083120313A000203019
:100590000A168A11E8210A128A11022BC630A0001D
:1005A0000A30F2000030F3006108A300A401230820
:1005B000F4002408F5000A168A113A270A128A1153
:1005C0007208303E0A168A11E8210A128A11C730D1
:1005D00083120313A0000A30F2000030F300610818
:1005E000A300A4012308F4002408F5000A168A11C8
:1005F00081260A128A117208303E0A168A11E821F1
:100600000A128A110230831203135F06031D092B9D
:100610000A2B222B2B0803190E2B0F2B222BC93050
:10062000A00020300A168A11E8210A128A11CA3065
:1006300083120313A00020300A168A11E8210A123F
:100640008A11562BC930A0000A30F2000030F300A6
:100650006008A300A4012308F4002408F5000A168A
:100660008A113A270A128A117208303E0A168A1134
:10067000E8210A128A11CA3083120313A0000A303B
:10068000F2000030F3006008A300A4012308F40086
:100690002408F5000A168A1181260A128A117208A6
:1006A000303E0A168A11E8210A128A110030080029
:1006B0000A128A1505200A128A1183160313640888
:1006C00083120313D80083160313650883120313E0
:1006D000D90083160313660883120313DA00C930A6
:1006E00084004A30C1000C30C20083130008C300EC
:1006F000040AC4004108840043088000040AC100C1
:1007000044088400C20B752BDB014530840083163E
:1007100003135F088000840A60088000840A61086F
:100720008000840A62088000840A630880004530E3
:10073000F90000300A168A1112220A128A11583062
:1007400083120313A3000A30A4000A168A11DC25C1
:100750000A128A11003083120313AF000030AE007A
:100760000330AD00FF30AC0000300A168A116B2256
:100770000A128A11720883120313C1007308C2009F
:10078000C301C4014408A3004308A2004208A10019
:100790004108A0000030A7000030A6000030A500EE
:1007A0006330A4000A168A11FC240A128A118312EB
:1007B00003132308B3002208B2002108B100200867
:1007C000B0000A128A1194250A128A1183120313A7
:1007D0002C08DC0001300A168A1138230A128A110B
:1007E00083120313DD002C30D6000130D700013016
:1007F000D6020030031CD703D702560A031D042C6F
:10080000570A031D042C052CF72B3E305D06031DF3
:100810000A2C0B2C222C5830F200D230F3008730F7
:10082000F4000A168A11AB220A128A115830831278
:100830000313A3005C08A4000A168A11DC250A121F
:100840008A11702D3D305D06031D272C282C512C5C
:1008500006305B0203182D2C2E2C512C5830F20040
:100860005B08C10041074A3E840083130008F3007F
:10087000840A00088403F4000A168A11AB220A12C3
:100880008A11013083120313DB07583083120313DC
:10089000A3005C08A4000A168A11DC250A128A113A
:1008A000702D3B305D06031D562C572C722C5B08B7
:1008B00003195B2C5C2C722C0130DB025830F200E7
:1008C0005B08C10041074A3E840083130008F3001F
:1008D000840A00088403F4000A168A11AB220A1263
:1008E0008A11452C37305D060319772C782C7E2C25
:1008F0002F305D06031D7D2C7E2C702D6C08031D92
:10090000822C832C702D0130EC000730EE000A168B
:100910008A1164210A128A11FF30F6008630F7002E
:100920008130F8000A168A11B8230A128A11F201DE
:10093000C4300A168A114E240A128A11C430F200F9
:100940000F300A168A114E240A128A11702D58305F
:10095000A2005C08A3000A168A112D260A128A1129
:100960008C2D83120313EC010A168A1164210A12DA
:100970008A11F2010C300A168A114E240A128A11C9
:100980008C2D023083120313EC000A30EE000A169D
:100990008A1164210A128A11F2010C300A168A1196
:1009A0004E240A128A11AA2B6E08A2005D080A12B0
:1009B0008A1595240A128A11123A0319B12C013AA8
:1009C0000319C12C8C2D6E08A2005D080A128A152D
:1009D000EB210A128A1183120313EB000A2DEC019A
:1009E0008C2D0330EC000B30EE00AA2B0830EC000D
:1009F0000E30EE00AA2B0630EC00F030EE00AA2BF1
:100A00000430EC001030EE00AA2B0530EC000D3065
:100A1000EE00AA2B6B08103A0319052D023A0319B0
:100A2000EF2CB83A0319F12C113A0319F62C773A46
:100A30000319FB2C113A0319002D8C2D023083125F
:100A40000313EC000A30EE000A168A1164210A1220
:100A50008A118C2D83120313EC01242D6E08A20041
:100A60005D080A128A1538260A128A11093A0319F2
:100A70001E2D1B3A03192A2D8C2D6E08A2005D082D
:100A80000A128A153F200A128A11093A03191E2DEB
:100A90008C2D6E08A2005D080A128A15CA200A125F
:100AA0008A11093A03191E2D8C2D6E08A2005D08CB
:100AB0000A128A1144200A128A11093A03191E2DBA
:100AC0008C2D6E08A2005D080A128A150F230A12E7
:100AD0008A11093A03191E2D183A03191E2D8C2D5F
:100AE000831203136C08003A0319A72C013A031967
:100AF000D42C033A0319E32C013A03192E2D073A9B
:100B00000319552D013A0319612D033A0319492D93
:100B10000E3A03193D2D8C2D0C3083120313EE0079
:100B2000AA2B0A128A110C28003083120313B70073
:100B30000030B6000030B5000030B4002F082E049D
:100B40002D042C040319A52DA62DF12D0130B8007C
:100B5000B42D0130F9000310AC0DAD0DAE0DAF0D8D
:100B6000F90BAB2D0130B807AF1FB72DB82DA92D4C
:100B70000130F9000310B40DB50DB60DB70DF90B2A
:100B8000BA2D2F083302031DCF2D2E083202031D6C
:100B9000CF2D2D083102031DCF2D2C083002031C50
:100BA000D22DD32DE22D2C08B0022D08031C2D0FC1
:100BB000B1022E08031C2E0FB2022F08031C2F0FA8
:100BC000B302341401300310AF0CAE0CAD0CAC0CFE
:100BD000FF3E031DE32D0130B802031DF02DF12D62
:100BE000B82D3708AF003608AE003508AD00340820
:100BF000AC0008008316031306083F38860008007F
:100C00000D340A342D342D342D342D342D342D341F
:100C10002D342D342D342D342D342D342D342D34CC
:100C20002D342D342D342D342D342D342D342D34BC
:100C30002D342D342D342D342D342D342D342D34AC
:100C40002D342D340A3400342D342D342D342D34EC
:100C50002D342D342D342D342D342D342D342D348C
:100C60002D342D342D342D342D342D342D342D347C
:100C70002D342D342D342D342D342D342D342D346C
:100C80002D342D342D342D340D340A3400340D34EC
:100C90000A342D342D342D342D342D342D342D346F
:100CA0002D342D342D342D342D342D342D342D343C
:100CB0002D342D342D342D342D342D342D342D342C
:100CC0002D342D342D342D342D342D342D342D341C
:100CD0002D3400340D340A3453342E344E346F34F2
:100CE0002034543449344D344534203420342034B5
:100CF00020342034453456342034533450340034B6
:100D00002034203420342034543449344D34453494
:100D10002034203420344534563420345334503475
:100D200000342334203420342034543449344D34B6
:100D30004534203420342034453456342034533460
:100D40005034003420345334573434343A34593422
:100D50004534533420345334573435343A344E34D4
:100D60004F34003459346F34753420346134723464
:100D70006534203462346C346F3463346B346534DE
:100D8000643400344334683461346E346734653419
:100D90002034703461347334733477346F34723484
:100DA0006434003444346F3477346E346C346F34CC
:100DB0006134643469346E3467342E342E342E3406
:100DC0000034573472346F346E3467342034503406
:100DD00061347334733477346F3472346434003470
:100DE00045346E3474346534723420344E34653492
:100DF00077342034503461347334733400344534E0
:100E00006E34743465347234203450346134733445
:100E1000733477346F347234643400344E346F3446
:100E200020344C346F3467347334203446346F3498
:100E300075346E3464340034523465342D34653482
:100E40006E34743465347234203450346134733405
:100E5000733400344C346F34673469346E34203466
:100E60005334753463346334653473347334003409
:100E700041347434743465346D3470347434733480
:100E800020346C34653466347434003443346C3448
:100E900065346134723420344C346F3467347334C5
:100EA00020343F340034543449344D3445342034F4
:100EB000553450344434413454344534443400348B
:100EC00050346134733473342034433468346134BF
:100ED0006E3467346534643400344C346F346734B2
:100EE0007334203443346C34653461347234653483
:100EF0006434003444346F3477346E346C346F347B
:100F00006134643420346C346F34673400344334D7
:100F10006834653463346B3420345534413452348E
:100F20005434003443346C346534613472342034C6
:100F30006C346F34673400345334453454342034C3
:100F4000543449344D3445340034533465347434A6
:100F50002034743469346D34653400345634693463
:100F60006534773420346C346F34673400344D3456
:100F7000693473346D3461347434633468340034E8
:100F80005734613469347434203466346F347234C5
:100F900000347334653463347334003420342034C3
:100FA00020340034433420340034473431340034A6
:100FB0004734323400344734333400344734343423
:100FC000003447344E340034473452340034F60091
:100FD0000A168A11A7210A128A11760883120313AE
:100FE0009300031083160313111F0314003003181A
:100FF0000130F400F5017408F2007508F3000800F0
:1010060001340734003083120313BC000130BB00E7
:101016008630BA00A030B9000A168A111A240A12BC
:101026008A150A168A11D4210A128A150A128A11F9
:10103600FA250A128A150A168A115D210A128A15DC
:101046000A168A119C210A128A150A168A11B421D7
:101056000A128A15003083120313BC000030BB004D
:101066002530BA008030B9000A168A11E7230A1221
:101076008A158B170B17080083120313A7000E306F
:101086002206031D4728482868280530E80007304F
:10109600E80012150A168A1164210A128A154630CA
:1010A600F6008730F7008230F8000A168A11B82356
:1010B6000A128A15A230F6008630F700C030F80012
:1010C6000A168A11B8230A128A15831203136808AE
:1010D600031D6E286F2871280930C9283730270666
:1010E600031D76287728C128A8010A30F9002808A8
:1010F6000A168A11FD210A128A15053E8312031368
:10110600A600A901FF30F700290826070A168A114A
:101116002F220A128A15013083120313A9070A30F7
:101126002902031C9728982885280130A8070A3029
:101136002802031C9F28A0287828EA010A168A118B
:1011460064210A128A156D30F6008730F700823066
:10115600F8000A168A11B8230A128A152730831254
:101166000313A5000D30A4002530A300A30BB92856
:10117600A40BB928A50BB928C0286F282F3027063D
:10118600031DC628C728C8286F2800300800831208
:101196000313AE00F0302206031DD228D328DA2925
:1011A6000A168A1164210A128A15D230F600863090
:1011B600F7008030F8000A168A11B8230A128A1539
:1011C6008730F6008730F700C230F8000A168A1119
:1011D600B8230A128A154730F3008630F4000A163F
:1011E6008A1112230A128A156A30F3008630F40037
:1011F6000A168A1112230A128A150030F300863065
:10120600F4000A168A1112230A128A15831203138E
:10121600B1010A30F90031080A168A11FD210A12B5
:101226008A15053E83120313AF000130B000B201E8
:101236003208233E840032082F070A168A118D23AE
:101246000A128A1583138000831203133208233E81
:101256008400000A0319302931293229B0010130EE
:10126600B2070A303202031C39293A291B293008F1
:1012760003193E293F294029C7293108303E0A165D
:101286008A1191210A128A15CE30F3008730F400B4
:101296000A168A1112230A128A15831203132308C7
:1012A6000A168A1191210A128A1583120313240839
:1012B6000A168A1191210A128A153A300A168A11DB
:1012C60091210A128A158312031325080A168A1118
:1012D60091210A128A158312031326080A168A1107
:1012E60091210A128A153A300A168A1191210A1298
:1012F6008A158312031327080A168A1191210A12E6
:101306008A158312031328080A168A1191210A12D4
:101316008A15CE30F3008730F4000A168A1112239C
:101326000A128A158312031329080A168A119121B3
:101336000A128A15831203132A080A168A119121A2
:101346000A128A15CE30F3008730F4000A168A1185
:1013560012230A128A15831203132B080A168A11FE
:1013660091210A128A15831203132C080A168A1170
:1013760091210A128A154430F3008630F4000A16C9
:101386008A1112230A128A15013083120313B10738
:101396000A303102031CD029D1290C292430F3004C
:1013A6008630F4000A168A1112230A128A152F3083
:1013B600831203132E06031DE129E229E9290A16E1
:1013C6008A1164210A128A150930EA2900300800B8
:1013D6000A30831203132206031DF229F329022A77
:1013E600FA010730E800121583160313A901AA01B2
:1013F6003F30FB000A168A1164210A128A158312ED
:1014060003136808031D082A092A102A0A168A11D6
:1014160064210A128A1512300E2B00300A168A1120
:1014260038230A128A1583120313A5003F302506B6
:1014360003191E2A1F2A362A0A30E8003F307B0687
:10144600031D262A272A2D2A2508FB0083160313A7
:10145600A901AA01013083160313A9070318AA0AD2
:101466000030AA07A02A3F307B0603193B2A3C2AF4
:10147600A02A0030831603132A0219300319290201
:10148600031C462A472A782A37307B06031D4C2A36
:101496004D2A6D2A3F30FB00A901AA015C2AAA3019
:1014A6000E2BBB300E2BCC300E2BDD300E2B10301E
:1014B6000E2B7A08003A0319522A013A0319542AC4
:1014C600033A0319562A013A0319582A073A031907
:1014D6005A2A9A2A2F307B06031D722A732A9A2AC1
:1014E6003F30FB00A901AA01092A37307B06031DFC
:1014F6007D2A7E2A8B2A7A080319822A832A8B2A36
:101506000130FA020A168A1164210A128A159A2AE9
:101516002F307B06031D902A912A9A2A04307A02DC
:101526000318962A972A9A2A0130FA07852A3F3005
:10153600FB0083160313A901AA0104307A06031DD2
:10154600A52AA62ADA2A7A088312A3002307D33EFD
:10155600840083130008F600840A00088403F70059
:101566008230F8000A168A11B8230A128A157A08F8
:1015760083120313A3002307D53E840083130008B8
:10158600F600840A00088403F700C230F8000A1641
:101596008A11B8230A128A15C03083120313A000D9
:1015A6002A300A168A11E8210A128A150D2B7A08A2
:1015B6008312A3002307D53E840083130008F60098
:1015C600840A00088403F7008230F8000A168A119C
:1015D600B8230A128A157A0883120313A300230775
:1015E600D73E840083130008F600840A00088403AB
:1015F600F700C230F8000A168A11B8230A128A15B3
:10160600803083120313A0002A300A168A11E821BB
:101616000A128A150030080083120313AB000D303E
:101626002206031D172B182B3B2BE401E301073081
:10163600E80012150A168A1164210A128A15F0307A
:10164600F6008630F7008030F8000A168A11B823B3
:101656000A128A15F201C4300A168A114E240A1299
:101666008A15F2010F300A168A114E240A128A15BB
:10167600831203136808031D412B422B502BF201E2
:101686000C300A168A114E240A128A150A168A1175
:1016960064210A128A150930942C37302B06031D53
:1016A600552B562B862B0430640203185B2B5C2BC0
:1016B600862B6308031D602B612B682B6408C13ED3
:1016C60084003130831380006E2B6408BD3E840095
:1016D6003130831380006408C43EA0002A300A1605
:1016E6008A11E8210A128A15013083120313E407CE
:1016F6000530E800F2016408C43E0A168A114E2439
:101706000A128A15BB2B2F302B06031D8B2B8C2B15
:10171600BB2B043064020318912B922BBB2B63085E
:10172600031D962B972B9E2B6408C13E84003030F8
:1017360083138000A42B6408BD3E840030308313DD
:1017460080006408C43EA0002A300A168A11E821E7
:101756000A128A15013083120313E4070530E800E4
:10176600F2016408C43E0A168A114E240A128A152A
:101776000430831203136406031DC22BC32BE92B0B
:101786006308031DC72BC82BE92B0130E300E401D6
:101796000A168A1164210A128A151C30F60087304F
:1017A600F7008030F8000A168A11B8230A128A1543
:1017B600F201C4300A168A114E240A128A15F20161
:1017C6000F300A168A114E240A128A150430831223
:1017D60003136406031DF02BF12B932C6303031DE7
:1017E600F52BF62B932CF2010C300A168A114E2497
:1017F6000A128A15C130F200BD30F3000430F4003D
:101806000030F5000A168A1144250A128A15720854
:101816007304031D0F2C102C522C8316031341083E
:1018260083120313A60083160313420883120313BD
:10183600A70083160313430883120313A800831615
:101846000313440883120313A900AA012630F900E2
:1018560000300A168A1112220A128A150A168A11ED
:1018660064210A128A156030F6008730F70081304D
:10187600F8000A168A11B8230A128A15273083122D
:101886000313A5000D30A4002530A300A30B492C9B
:10189600A40B492CA50B492C502C1130942C0A165C
:1018A6008A1164210A128A15B730F6008730F700CC
:1018B6008430F8000A168A11B8230A128A152730CE
:1018C60083120313A5000D30A4002530A300A30B3B
:1018D6006A2CA40B6A2CA50B6A2C712C8312031399
:1018E600E301E4010A168A1164210A128A15F0300E
:1018F600F6008630F7008030F8000A168A11B82301
:101906000A128A15F201C4300A168A114E240A12E6
:101916008A15F2010F300A168A114E240A128A1508
:101926000030080083120313AA0007302206031DA5
:101936009D2C9E2CA62CE7010330E60012153F30A5
:10194600AA000A30E8006808031DAA2CAB2CAD2CAF
:101956001230372E37302A06031DB22CB32CCF2C6B
:10196600043067020318B82CB92CCF2C6708C53E83
:1019760084003130831380006708C43EA0002A30FB
:101986000A168A11E8210A128A15013083120313F6
:10199600E7070530E800EB2C2F302A06031DD42C70
:1019A600D52CEB2C043067020318DA2CDB2CEB2C3D
:1019B6006708C53E84003030831380006708C43E44
:1019C600A0002A300A168A11E8210A128A15C82CA4
:1019D600073083120313A5005830A4005930A30022
:1019E600A30BF32CA40BF32CA50BF32C04308312BE
:1019F60003136706031D002D012D372EAB01AC0125
:101A0600831203132B08263E84002B080A168A111C
:101A16008D230A128A158313800001308312031363
:101A2600AB070318AC0A0030AC072C08803AFF005D
:101A360080307F02031D212D04302B02031C242D30
:101A4600252D032DC530F2002630F3000430F400B6
:101A56000030F5000A168A1144250A128A15720802
:101A66007304031D372D382D612D0A168A11642142
:101A76000A128A15C430F2000C300A168A114E2456
:101A86000A128A152A30F6008730F7008230F800ED
:101A96000A168A11B8230A128A151A3083120313FA
:101AA600A5005E30A4006D30A300A30B582DA40B37
:101AB600582DA50B582D5F2D1330372E013083126C
:101AC6000313E6020A168A1164210A128A15831282
:101AD60003136608031D702D712DDD2DC430F20031
:101AE6000C300A168A114E240A128A15B230F600F4
:101AF6008630F7008030F8000A168A11B8230A12D9
:101B06008A15C030F6008730F700C030F8000A1694
:101B16008A11B8230A128A15C930F6008730F700F1
:101B2600CC30F8000A168A11B8230A128A153C30FE
:101B360083120313E900D32DC930A0000A30F20046
:101B46000030F3006908A300A4012308F400240868
:101B5600F5000A168A113A270A128A157208303ECB
:101B66000A168A11E8210A128A15CA30831203134B
:101B7600A0000A30F2000030F3006908A300A401B7
:101B86002308F4002408F5000A168A1181260A1291
:101B96008A157208303E0A168A11E8210A128A1539
:101BA600831203136908031DD92DDA2D9F2D0330E7
:101BB600E600142EC430F2000C300A168A114E24A8
:101BC6000A128A15E130F6008630F7008030F800F8
:101BD6000A168A11B8230A128A15C0308312031313
:101BE600A0006608303E0A168A11E8210A128A15F4
:101BF6003830F6008730F700C230F8000A168A112E
:101C0600B8230A128A15333083120313A500BB309A
:101C1600A400DF30A300A30B0E2EA40B0E2EA50BE3
:101C26000E2E0A168A1164210A128A1583120313CC
:101C3600E7010530E800FF30F6008630F700813016
:101C4600F8000A168A11B8230A128A15F201C4305E
:101C56000A168A114E240A128A15F2010F300A1644
:101C66008A114E240A128A15080083120313A4004F
:101C76000130A3000B302206031D422E432E4C2EAC
:101C8600E5010730E80012150A168A1164210A12C6
:101C96008A15831203136808031D522E532E552EE0
:101CA6000930FF2F00300A168A1138230A128A15C6
:101CB6002F3A031D5F2E602E862E013083160313E6
:101CC600A7070318A80A0030A80700302802193011
:101CD60003192702031C702E712E8A2E00300A1655
:101CE6008A1138230A128A152F3A03197B2E7C2E65
:101CF600712E83160313A701A8010A168A116421FF
:101D06000A128A15532E83160313A701A8010A3057
:101D1600F9008312031365080A168A11FD210A12B7
:101D26008A15053E83120313A600A7012708AB3EBA
:101D36008400270826070A168A118D230A128A1597
:101D460083138000013083120313A7070A3027028A
:101D5600031CAE2EAF2E992E83160313B5018312E4
:101D66000313A5012508AB3E8400000A0319BC2E07
:101D7600BD2EBF2EA301C72E0130A5070A302502AE
:101D8600031CC62EC72EB52E23080319CB2ECC2E28
:101D9600D92E0E30F6008730F7008130F8000A168B
:101DA6008A11B8230A128A150030FF2F373024060D
:101DB600031DDE2EDF2E162F6508031DE32EE42EEF
:101DC600E72E0930E500E92EFF30E5070530E8008B
:101DD6000A168A1164210A128A150A30F90083123A
:101DE600031365080A168A11FD210A128A15053E93
:101DF60083120313A600A8012808AB3E8400280816
:101E060026070A168A118D230A128A158313800063
:101E1600013083120313A8070A302802031C142F6B
:101E2600152FFF2E522F2F302406031D1B2F1C2F7C
:101E3600522F09306506031D212F222F242FE5017D
:101E4600262F0130E5070530E8000A168A116421BD
:101E56000A128A150A30F9008312031365080A1656
:101E66008A11FD210A128A15053E83120313A60064
:101E7600A9012908AB3E8400290826070A168A11FB
:101E86008D230A128A1583138000013083120313EF
:101E9600A9070A302902031C512F522F3C2F9130DB
:101EA600F6008630F7008030F8000A168A11B8234B
:101EB6000A128A15C03083120313A0006508303E4B
:101EC6000A168A11E8210A128A15C13083120313F1
:101ED600A00020300A168A11E8210A128A15C2309B
:101EE60083120313A000831603132B080A168A1104
:101EF600E8210A128A15C33083120313A000831641
:101F060003132C080A168A11E8210A128A15C4300E
:101F160083120313A0003A300A168A11E8210A1226
:101F26008A15C53083120313A000831603132D08E8
:101F36000A168A11E8210A128A15C630831203137B
:101F4600A000831603132E080A168A11E8210A1226
:101F56008A15C73083120313A0003A300A168A1175
:101F6600E8210A128A15C83083120313A0008316CB
:101F760003132F080A168A11E8210A128A15C93096
:101F860083120313A0008316031330080A168A115E
:101F9600E8210A128A15CB3083120313A000831698
:101FA600031331080A168A11E8210A128A15CC3061
:101FB60083120313A0008316031332080A168A112C
:101FC600E8210A128A15CE3083120313A000831665
:101FD600031333080A168A11E8210A128A15CF302C
:101FE60083120313A0008316031334080A168A11FA
:101FF600E8210A128A15D72E0800FF1B0A28831328
:102006007F1883170008840A0319FF0A08007F084F
:0E2016007F398A000408840A0319FF0A820039
:1022BA00831603139F17831203131F140800F201D6
:1022CA0001300A168A114E240A168A11080064007F
:1022DA008001840A04060319003404066D290A16CB
:1022EA008A11A7210A168A118316031311140800EA
:1022FA000A168A11A7210A168A11831603131115C1
:10230A0008000A168A117D210A168A110A168A11EC
:10231A0074210A168A110800F20072088312031344
:10232A0099000C1E99299A2996290C1208008316DD
:10233A0003138801091189100A168A119D270A16A2
:10234A008A110800831603131419AC29AD29A72989
:10235A0011081F39031DB229B329A72908008312BE
:10236A00031312149214FA308316031392008C1476
:10237A0083120313121108007E088A007F08820064
:10238A000A168A11C1210A168A118000840A0408D1
:10239A007D0603190034FF0A0319FE0AC529003015
:1023AA000A168A1162230A168A1183120313A200DB
:1023BA007F30A2052208A00000300A168A11EE22F8
:1023CA000A168A11080083120313A100F2012008D9
:1023DA000A168A114E240A168A11F201F20A831287
:1023EA00031321080A168A114E240A168A110800B4
:1023FA0083120313A100A001211C042A052A072A1B
:10240A007908A0070310F90D0310A10C2108031D78
:10241A000F2A102A012A2008080083120313A00099
:10242A00262A790884000008F70020080A168A116B
:10243A002F220A168A110130F90701308312031379
:10244A00A0077908840083130008031D2D2A2E2A69
:10245A00162A0800F8000A168A1174210A168A1127
:10246A00A0300A128A11E7270A168A1178080A1276
:10247A008A11E7270A168A1177080A128A11E727AA
:10248A000A168A110A168A117D210A168A1108006B
:10249A00E1348734E4348734D5348734D834873404
:1024AA00DB348734DE348734AE348734923487346D
:1024BA007A348734A5348734C2348634303430349D
:1024CA003034303400344F344E340034F700770857
:1024DA00F40003300310F40DFF3E031D6F2A83122C
:1024EA0003131F08C73974049F001F151F197E2A7A
:1024FA007F2A7B2A1E08F600831603131E08F5009E
:10250A007608F3007508F2000800F2000A168A112C
:10251A00A7210A168A118316031391150A168A111E
:10252A00A7210A168A11831203131308F3007203F0
:10253A00031DA02AA12AA52A831603139116A82AE5
:10254A008316031391121116730808007208F70014
:10255A007408F6007308F500F30A0319F40A7608FA
:10256A0083120313FF00750884000A168A110020DB
:10257A000A168A11FF007708F70A84007F08831376
:10258A0080000008031DCA2ACB2AAD2A080005309C
:10259A0083120313A2000130EA070B306A06031DF7
:1025AA00D72AD82AD92AEA010A30F9006A080A166B
:1025BA008A11FD210A168A11831203132207A20027
:1025CA00AB30F90022080A168A1112220A168A1159
:1025DA00080083120313A1000A168A1174210A162D
:1025EA008A11D0300A128A11E7270A168A11831231
:1025FA00031321080A128A11E7270A168A1183127D
:10260A00031320080A128A11E7270A168A110A16E2
:10261A008A117D210A168A110800272B7408FF00E7
:10262A00730884000A168A1100200A168A110A16EB
:10263A008A1191210A168A110130F3070318F40A44
:10264A000030F407740883120313FF007308840030
:10265A000A168A1100200A168A11003A031D362B1F
:10266A00372B132B0800F3007308031D3D2B3E2B59
:10267A00432B8312031306083F39612B3F30831221
:10268A0003130605F2003F30720603194D2B4E2B39
:10269A00552B6D080319522B532B552BED013E2B4D
:1026AA003F300605F2003F307206031D5D2B5E2B9C
:1026BA00602B0130ED003F300800F7000A168A113E
:1026CA0074210A168A11D0300A128A11E7270A16CB
:1026DA008A1177080A128A11E7270A168A110A1636
:1026EA008A1186210A168A11D1300A128A11E7271D
:1026FA000A168A1100300A168A118A220A168A11C3
:10270A00F8000A168A117D210A168A11780808002B
:10271A00F7000A168A1174210A168A11A0300A12C1
:10272A008A11E7270A168A1177080A128A11E727F7
:10273A000A168A110A168A1186210A168A11A130E6
:10274A000A128A11E7270A168A1100300A168A1114
:10275A008A220A168A11F8000A168A117D210A1697
:10276A008A1178080800F20178080A168A114E249C
:10277A000A168A11D62BF201F20A7708FF007608A8
:10278A0084000A168A1100200A168A110A168A116A
:10279A004E240A168A110130F6070318F70A003088
:1027AA00F707770883120313FF00760884000A16D6
:1027BA008A1100200A168A11003A031DE52BE62B1E
:1027CA00C02B080083120313981718163908BD0086
:1027DA003A08BE003B08BF003C08C00004300310A2
:1027EA00BD0DBE0DBF0DC00DFF3E031DF42B4008ED
:1027FA00AF003F08AE003E08AD003D08AC00013016
:10280A00B3003130B2002D30B1000030B0000A12EE
:10281A008A1194250A168A11831203132C08FF3E83
:10282A008316031399008C16080083120313941558
:10283A003908BD003A08BE003B08BF003C08C0008A
:10284A0002300310BD0DBE0DBF0DC00DFF3E031DAE
:10285A00262C4008AF003F08AE003E08AD003D08F8
:10286A00AC000130B3003130B2002D30B10000307D
:10287A00B0000A128A1194250A168A1183120313C8
:10288A002C08FF3E83160313930083120313941636
:10289A000800F5007218522C562C831203130915DE
:1028AA00592C8312031309117508F0398800891409
:1028BA00A630F300F30B5F2C000083120313891078
:1028CA0075080F39F30003300310F30DFF3E031DA3
:1028DA00692C0310730D88008914A630F300F30BDA
:1028EA00742C00008312031389101B30F4009E30ED
:1028FA00F300F30B7E2CF40B7E2C00000800720808
:10290A00F6009E2C0130F4020030031CF503F50298
:10291A007308F30A840083130008FF007608F60A96
:10292A0084007F0880000008031D9C2C9D2C9E2C8F
:10293A00AB2C74087504031DA32CA42C872CAB2C78
:10294A0076088400831380010130F6070130F4020F
:10295A000030031CF503F502740A031DB82C750A2E
:10296A00031DB82CB92CA52C0800831203138C1C48
:10297A00BF2CC02CE92C013083160313A3070318BC
:10298A00A40A0030A407E2302306043003192406FF
:10299A00031DD02CD12CE62C8312031369080319CA
:1029AA00D72CD82CDB2C0130E902E22C6808031959
:1029BA00DF2CE02CE22C0130E80283160313A3017A
:1029CA00A401831203138C108C1EEC2CED2CF52C15
:1029DA00981CF02CF12CF22C98101A08DE008C129C
:1029EA0071088A00700E8300FE0E7E0E0900003008
:1029FA0083120313AB000030AA000030A900003094
:102A0A00A800201C092D0A2D212D2408A807250815
:102A1A0003110318013E0319132DA90726080311F0
:102A2A000318013E03191A2DAA07270803110318D0
:102A3A00013E0319212DAB070130F8000310A40D44
:102A4A00A50DA60DA70DF80B232D01300310A30C1D
:102A5A00A20CA10CA00CFF3E031D2B2D230822045F
:102A6A0021042004031D3A2D3B2D062D2B08A3001B
:102A7A002A08A2002908A1002808A000080001309D
:102A8A00F4020030031CF503F502740A031D512DEC
:102A9A00750A031D512D522D5F2DF201F3018E2D62
:102AAA000130F2070130F3070130F4020030031C51
:102ABA00F503F50272088400831300080319662DD2
:102ACA00672D802D73088400000803196D2D6E2D63
:102ADA00802D740875040319732D742D802D7308C5
:102AEA0084000008F60072088400000876060319BC
:102AFA007F2D802D552D730884000008F60072087A
:102B0A0084000008F70076087702F200F301031C3C
:102B1A00F303080002300A168A1162230A168A1180
:102B2A0083160313A00001300A168A1162230A16BB
:102B3A008A1183160313A10000300A168A11622330
:102B4A000A168A1183160313A2002008F90004301A
:102B5A000310F90CFF3E031DAD2D79080339303EF1
:102B6A00B60020080F39303EB7002108F9000430BA
:102B7A000310F90CFF3E031DBD2D79080339303EC1
:102B8A00B80021080F39303EB9002208F900043094
:102B9A000310F90CFF3E031DCD2D79080739303E8D
:102BAA00BA0022080F39303EBB00BC010800AB3026
:102BBA00F200B630F3000630F4000030F5000A16D1
:102BCA008A1184240A168A11B130F200831203137F
:102BDA002308F3000230F4000030F5000A168A11C7
:102BEA0084240A168A110A30F2000030F300831294
:102BFA0003132408A500A6012508F4002608F500F9
:102C0A000A168A113A270A168A117208303E831662
:102C1A000313B3000A30F2000030F30083120313E7
:102C2A002408A500A6012508F4002608F5000A16BE
:102C3A008A1181260A168A117208303E83160313F6
:102C4A00B400B5010A168A11CC220A168A110800A4
:102C5A008030F6008630F7008030F8000A168A11B4
:102C6A00B8230A168A11831203132208F6000030C9
:102C7A00F700CB30F8000A168A11B8230A168A110F
:102C8A00CE3083120313A0000A30F2000030F300A2
:102C9A002308A400A5012408F4002508F5000A1653
:102CAA008A113A270A168A117208303E0A168A11C0
:102CBA00E8210A168A11CF3083120313A0000A30C2
:102CCA00F2000030F3002308A400A5012408F40050
:102CDA002508F5000A168A1181260A168A11720831
:102CEA00303E0A168A11E8210A168A110A168A1132
:102CFA00D8260A168A110800F701F51F852E862E96
:102D0A008D2EF409F509F40A0319F50A0130F700C2
:102D1A00F31F902E912E962EF209F309F20A031947
:102D2A00F30A7208730403199B2E9C2EC92E0130D4
:102D3A00F600A82E01300310F20DF30DFF3E031D1D
:102D4A00A02E0130F607F31FAB2EAC2E9F2E730870
:102D5A007502031DB22E72087402031CB52EB62E1C
:102D6A00BC2E7208F4027308031CF503F502013045
:102D7A000310F30CF20CFF3E031DBD2E0130F602C8
:102D8A00031DC82EC92EAC2E77080319CD2ECE2EC0
:102D9A00D32EF409F509F40A0319F50A7508F300A4
:102DAA007408F20008000A168A118F250A168A1179
:102DBA00C23083120313A0008316031336080A16BF
:102DCA008A11E8210A168A11C33083120313A0005C
:102DDA008316031337080A168A11E8210A168A117C
:102DEA00C43083120313A0003A300A168A11E8216C
:102DFA000A168A11C53083120313A000831603131F
:102E0A0038080A168A11E8210A168A11C63083126E
:102E1A000313A0008316031339080A168A11E8213E
:102E2A000A168A11C73083120313A0003A300A1611
:102E3A008A11E8210A168A11C83083120313A000E6
:102E4A00831603133A080A168A11E8210A168A1108
:102E5A00C93083120313A000831603133B080A1612
:102E6A008A11E8210A168A110800F701F31F3E2F7A
:102E7A003F2F462FF209F309F20A0319F30A013028
:102E8A00F700F51F492F4A2F512FF409F509F40AC3
:102E9A000319F50A0130F706F801F90172087304FB
:102EAA000319582F592F8E2F0130F600652F013044
:102EBA000310F20DF30DFF3E031D5D2F0130F607DF
:102ECA00F31F682F692F5C2F01300310F80DF90DDD
:102EDA00FF3E031D6A2F73087502031D762F7208C1
:102EEA007402031C792F7A2F812F7208F402730857
:102EFA00031CF503F502781401300310F30CF20CED
:102F0A00FF3E031D822F0130F602031D8D2F8E2FE7
:102F1A00692F77080319922F932F982FF809F90927
:102F2A00F80A0319F90A7908F3007808F200080088
:102F3A00C330F700CD30F600F60BA12FF70BA12F07
:102F4A00F20133300A168A114E240A168A111B30EE
:102F5A00F7009E30F600F60BB02FF70BB02F0000EB
:102F6A00F20133300A168A114E240A168A11A63043
:102F7A00F600F60BBE2F0000F20133300A168A1152
:102F8A004E240A168A11C92FCA2F0000F2010230F4
:102F9A000A168A114E240A168A11A630F600F60B72
:102FAA00D42F0000F20128300A168A114E240A167C
:102FBA008A11A630F600F60BE02F0000F20101306C
:102FCA000A168A114E240A168A110430F7003D3077
:102FDA00F600F60BEE2FF70BEE2FF32FF2010C3063
:102FEA000A168A114E240A168A11A630F600F60B22
:062FFA00FC2F000008009E
:02400E00FB3F76
:00000001FF
